S0130000554152545F4452495645522E73726563AA
S11300000C942A000C9434000C9434000C943400A6
S11300100C9434000C9434000C9434000C9434008C
S11300200C9434000C9434000C9434000C9434007C
S11300300C9434000C9434000C9434000C9434006C
S11300400C9434000C9434000C9434000C9434005C
S11300500C94340011241FBECFE5D8E0DEBFCDBF21
S11300600E9436000C9450000C9400000E943E0044
S113007081E60E9448000E944C00FBCF10BC8CE03B
S113008089B982E08BB984E880BD88E18AB9089592
S11300905D9BFECF8CB908955F9BFECF8CB1089514
S10700A0F894FFCFFE
S9030000FC
